{"abi":[{"type":"function","name":"deposit","inputs":[],"outputs":[],"stateMutability":"payable"},{"type":"function","name":"list","inputs":[{"name":"","type":"address","internalType":"address"}],"outputs":[{"name":"","type":"uint256","internalType":"uint256"}],"stateMutability":"view"},{"type":"event","name":"Deposit","inputs":[{"name":"user","type":"address","indexed":false,"internalType":"address"},{"name":"amount","type":"uint256","indexed":false,"internalType":"uint256"}],"anonymous":false}],"bytecode":{"object":"0x6080604052348015600e575f5ffd5b5061036a8061001c5f395ff3fe608060405260043610610028575f3560e01c8063bb032a661461002c578063d0e30db014610068575b5f5ffd5b348015610037575f5ffd5b50610052600480360381019061004d91906101ca565b610072565b60405161005f919061020d565b60405180910390f35b610070610086565b005b5f602052805f5260405f205f915090505481565b3373ffffffffffffffffffffffffffffffffffffffff163134106100df576040517f08c379a00000000000000000000000000000000000000000000000000000000081526004016100d690610280565b60405180910390fd5b345f5f3373ffffffffffffffffffffffffffffffffffffffff1673ffffffffffffffffffffffffffffffffffffffff1681526020019081526020015f205f82825461012a91906102cb565b925050819055507fe1fffcc4923d04b559f4d29a8bfc6cda04eb5b0d3c460751c2402c5c5cc9109c333460405161016292919061030d565b60405180910390a1565b5f5ffd5b5f73ffffffffffffffffffffffffffffffffffffffff82169050919050565b5f61019982610170565b9050919050565b6101a98161018f565b81146101b3575f5ffd5b50565b5f813590506101c4816101a0565b92915050565b5f602082840312156101df576101de61016c565b5b5f6101ec848285016101b6565b91505092915050565b5f819050919050565b610207816101f5565b82525050565b5f6020820190506102205f8301846101fe565b92915050565b5f82825260208201905092915050565b7f4e6f7420656e6f756768204574680000000000000000000000000000000000005f82015250565b5f61026a600e83610226565b915061027582610236565b602082019050919050565b5f6020820190508181035f8301526102978161025e565b9050919050565b7f4e487b71000000000000000000000000000000000000000000000000000000005f52601160045260245ffd5b5f6102d5826101f5565b91506102e0836101f5565b92508282019050808211156102f8576102f761029e565b5b92915050565b6103078161018f565b82525050565b5f6040820190506103205f8301856102fe565b61032d60208301846101fe565b939250505056fea26469706673582212205ec17900799bdda3e65645737fcd11c369b85d1a6e8926ba38560da450b5330764736f6c634300081e0033","linkReferences":{}},"methodIdentifiers":{"deposit()":"d0e30db0","list(address)":"bb032a66"},"id":0}